{
  "contractName": "coinFlip",
  "abi": [
    {
      "anonymous": false,
      "inputs": [
        {
          "indexed": true,
          "internalType": "address",
          "name": "user",
          "type": "address"
        },
        {
          "indexed": false,
          "internalType": "uint256",
          "name": "amt",
          "type": "uint256"
        },
        {
          "indexed": false,
          "internalType": "bool",
          "name": "prediction",
          "type": "bool"
        }
      ],
      "name": "betPlaced",
      "type": "event"
    },
    {
      "constant": true,
      "inputs": [],
      "name": "betval",
      "outputs": [
        {
          "internalType": "uint256",
          "name": "",
          "type": "uint256"
        }
      ],
      "payable": false,
      "stateMutability": "view",
      "type": "function"
    },
    {
      "constant": true,
      "inputs": [],
      "name": "botval",
      "outputs": [
        {
          "internalType": "uint256",
          "name": "",
          "type": "uint256"
        }
      ],
      "payable": false,
      "stateMutability": "view",
      "type": "function"
    },
    {
      "constant": true,
      "inputs": [],
      "name": "owner",
      "outputs": [
        {
          "internalType": "address",
          "name": "",
          "type": "address"
        }
      ],
      "payable": false,
      "stateMutability": "view",
      "type": "function"
    },
    {
      "constant": false,
      "inputs": [
        {
          "internalType": "bool",
          "name": "betOn",
          "type": "bool"
        }
      ],
      "name": "flip",
      "outputs": [],
      "payable": true,
      "stateMutability": "payable",
      "type": "function"
    }
  ],
  "bytecode": "0x608060405266038d7ea4c6800060015534801561001b57600080fd5b506102f88061002b6000396000f3fe60806040526004361061003f5760003560e01c80631d263f67146100445780634c72d192146100745780638da5cb5b1461009f578063e2e0251a146100f6575b600080fd5b6100726004803603602081101561005a57600080fd5b81019080803515159060200190929190505050610121565b005b34801561008057600080fd5b50610089610292565b6040518082815260200191505060405180910390f35b3480156100ab57600080fd5b506100b4610298565b604051808273ffffffffffffffffffffffffffffffffffffffff1673ffffffffffffffffffffffffffffffffffffffff16815260200191505060405180910390f35b34801561010257600080fd5b5061010b6102bd565b6040518082815260200191505060405180910390f35b600334026002541161019b576040517f08c379a000000000000000000000000000000000000000000000000000000000815260040180806020018281038252600d8152602001807f4c6f772062616c616e636520210000000000000000000000000000000000000081525060200191505060405180910390fd5b600154341015610213576040517f08c379a00000000000000000000000000000000000000000000000000000000081526004018080602001828103825260118152602001807f496e76616c6964206265742076616c756500000000000000000000000000000081525060200191505060405180910390fd5b6000806002428161022057fe5b06149050346002600082825401925050819055503373ffffffffffffffffffffffffffffffffffffffff167f73bd43530b3f4bd380a12ac5b08dcbb30e92f8df9a9e3264c6a26222309ff953348360405180838152602001821515151581526020019250505060405180910390a25050565b60025481565b6000809054906101000a900473ffffffffffffffffffffffffffffffffffffffff1681565b6001548156fea265627a7a7231582099aae362729e6a51368e953de8733001bd6a6bafabeb28b6c9d674045501a4c064736f6c63430005100032",
  "source": "// SPDX-License-Identifier : GPL-3.0\r\npragma solidity >=0.4.22 <0.9.0;\r\n\r\ncontract coinFlip {\r\n    address public owner; // Contract deployer\r\n    uint256 public betval = 1e15; // The threshhold\r\n    uint256 public botval;\r\n\r\n    // constructor() payable {\r\n    //     owner = msg.sender;\r\n    //     botval = msg.value; // Bot balance\r\n    // }\r\n\r\n    event betPlaced(address indexed user, uint256 amt, bool prediction);\r\n\r\n    modifier botbalance() {\r\n        require(botval > msg.value * 3, \"Low balance !\");\r\n        _;\r\n    }\r\n\r\n    modifier validbet() {\r\n        require(msg.value >= betval, \"Invalid bet value\");\r\n        _;\r\n    }\r\n\r\n    function flip(bool betOn) external payable botbalance validbet {\r\n        bool prediction = (block.timestamp % 2 == 0);\r\n\r\n        if (betOn == prediction) {\r\n            // payable(msg.sender).transfer(msg.value * 2);\r\n            // payable(msg.sender).transfer(msg.value * 2);\r\n        }\r\n        botval += msg.value;\r\n\r\n        emit betPlaced(msg.sender, msg.value, prediction);\r\n    }\r\n}\r\n",
  "sourcePath": "C:\\Users\\Hemanth KR\\OneDrive\\Desktop\\CoinFlip\\contracts\\coinflip.sol",
  "compiler": {
    "name": "solc",
    "version": "0.5.16+commit.9c3226ce.Emscripten.clang"
  },
  "schemaVersion": "3.4.16",
  "updatedAt": "2023-12-26T14:47:21.979Z",
  "networkType": "ethereum",
  "devdoc": {
    "methods": {}
  },
  "userdoc": {
    "methods": {}
  }
}