{
  "contractName": "coinFlip",
  "abi": [
    {
      "anonymous": false,
      "inputs": [
        {
          "indexed": true,
          "internalType": "address",
          "name": "user",
          "type": "address"
        },
        {
          "indexed": false,
          "internalType": "uint256",
          "name": "amt",
          "type": "uint256"
        },
        {
          "indexed": false,
          "internalType": "bool",
          "name": "prediction",
          "type": "bool"
        }
      ],
      "name": "betPlaced",
      "type": "event"
    },
    {
      "constant": true,
      "inputs": [],
      "name": "betval",
      "outputs": [
        {
          "internalType": "uint256",
          "name": "",
          "type": "uint256"
        }
      ],
      "payable": false,
      "stateMutability": "view",
      "type": "function"
    },
    {
      "constant": true,
      "inputs": [],
      "name": "botval",
      "outputs": [
        {
          "internalType": "uint256",
          "name": "",
          "type": "uint256"
        }
      ],
      "payable": false,
      "stateMutability": "view",
      "type": "function"
    },
    {
      "constant": false,
      "inputs": [
        {
          "internalType": "bool",
          "name": "betOn",
          "type": "bool"
        }
      ],
      "name": "flip",
      "outputs": [],
      "payable": true,
      "stateMutability": "payable",
      "type": "function"
    }
  ],
  "bytecode": "0x608060405266038d7ea4c6800060005534801561001b57600080fd5b506102c88061002b6000396000f3fe6080604052600436106100345760003560e01c80631d263f67146100395780634c72d19214610069578063e2e0251a14610094575b600080fd5b6100676004803603602081101561004f57600080fd5b810190808035151590602001909291905050506100bf565b005b34801561007557600080fd5b5061007e610287565b6040518082815260200191505060405180910390f35b3480156100a057600080fd5b506100a961028d565b6040518082815260200191505060405180910390f35b6003340260015411610139576040517f08c379a000000000000000000000000000000000000000000000000000000000815260040180806020018281038252600d8152602001807f4c6f772062616c616e636520210000000000000000000000000000000000000081525060200191505060405180910390fd5b6000543410156101b1576040517f08c379a00000000000000000000000000000000000000000000000000000000081526004018080602001828103825260118152602001807f496e76616c6964206265742076616c756500000000000000000000000000000081525060200191505060405180910390fd5b600080600242816101be57fe5b061490508015158215151415610219573373ffffffffffffffffffffffffffffffffffffffff166108fc600234029081150290604051600060405180830381858888f19350505050158015610217573d6000803e3d6000fd5b505b346001600082825401925050819055503373ffffffffffffffffffffffffffffffffffffffff167f73bd43530b3f4bd380a12ac5b08dcbb30e92f8df9a9e3264c6a26222309ff953348360405180838152602001821515151581526020019250505060405180910390a25050565b60015481565b6000548156fea265627a7a72315820680d193b1802dd77e167262b6874da310d9b17f01234619c24021b17422f16c664736f6c63430005100032",
  "source": "// SPDX-License-Identifier : GPL-3.0\r\npragma solidity >=0.4.22 <0.9.0;\r\n\r\ncontract coinFlip {\r\n    // address public owner; // Me - Contract deployer\r\n    uint256 public betval = 1e15; // The threshhold\r\n    uint256 public botval; // Amt bot has / bank\r\n\r\n    // constructor() {\r\n    //     owner = msg.sender;\r\n    //     betval = 1e15; // 1 Ether = 1e18 wei\r\n    // }\r\n\r\n    event betPlaced(address indexed user, uint256 amt, bool prediction);\r\n\r\n    modifier botbalance() {\r\n        require(botval > msg.value * 3, \"Low balance !\");\r\n        _;\r\n    }\r\n\r\n    modifier validbet() {\r\n        require(msg.value >= betval, \"Invalid bet value\");\r\n        _;\r\n    }\r\n\r\n    function flip(bool betOn) external payable botbalance validbet {\r\n        bool prediction = (block.timestamp % 2 == 0);\r\n\r\n        if (betOn == prediction) {\r\n            // payable(msg.sender).transfer(msg.value * 2);\r\n            msg.sender.transfer(msg.value * 2);\r\n        }\r\n        botval += msg.value;\r\n\r\n        emit betPlaced(msg.sender, msg.value, prediction);\r\n    }\r\n}\r\n",
  "sourcePath": "C:\\Users\\Hemanth KR\\OneDrive\\Desktop\\CoinFlip\\contracts\\coinflip.sol",
  "compiler": {
    "name": "solc",
    "version": "0.5.16+commit.9c3226ce.Emscripten.clang"
  },
  "schemaVersion": "3.4.16",
  "updatedAt": "2023-12-25T20:03:59.267Z",
  "networkType": "ethereum",
  "devdoc": {
    "methods": {}
  },
  "userdoc": {
    "methods": {}
  }
}